:020000040800F2
:100000003055002009030008E12500086923000895
:10001000DD2500083F0600089139000800000000B7
:10002000000000000000000000000000490200087D
:10003000B906000800000000A502000839330008D6
:1000400023030008230300082303000823030008F8
:1000500023030008230300082303000823030008E8
:1000600023030008230300082303000823030008D8
:1000700023030008230300082303000823030008C8
:1000800023030008230300082303000823030008B8
:1000900023030008230300082303000823030008A8
:1000A0002303000823030008230300082303000898
:1000B0002303000823030008230300082303000888
:1000C0002303000823030008230300082303000878
:1000D0002303000871390008813900082303000850
:1000E0002303000823030008230300082303000858
:1000F0002303000823030008230300082303000848
:100100002303000831260008230300082303000806
:100110002303000823030008230300081934000800
:100120002303000823030008230300082303000817
:100130002303000823030008230300082303000807
:1001400023030008230300082303000823030008F7
:1001500023030008230300082303000823030008E7
:1001600023030008230300082303000823030008D7
:1001700023030008230300082303000800000000F5
:10018000230300082303000800F002F800F04CF8F5
:100190000AA090E8000C82448344AAF10107DA45E2
:1001A00001D100F041F8AFF2090EBAE80F0013F0E8
:1001B000010F18BFFB1A43F00103184768580000ED
:1001C000885800000A4410F8014B14F00F0508BFCE
:1001D00010F8015B240908BF10F8014B6D1E05D013
:1001E00010F8013B6D1E01F8013BF9D1641E03D0EC
:1001F000641E01F8015BFBD19142E4D3704700001B
:100200000023002400250026103A28BF78C1FBD81F
:10021000520728BF30C148BF0B6070471FB505F0BB
:10022000D7FB1FBD10B510BD00F0D0F91146FFF788
:10023000F5FF03F0CEFB00F0EEF903B4FFF7F2FF99
:1002400003BC00F0F5F900002C4B19680868B0E811
:10025000F04F80F30988BFF36F8F4FF0000080F3F9
:10026000118870470000000008480068006880F3AB
:1002700008884FF0000080F3148862B661B6BFF3BF
:100280004F8FBFF36F8F00DF00BF00BF08ED00E0AE
:10029000DFF80C00016841F470010160704700BF95
:1002A00088ED00E0EFF30980BFF36F8F134B1A68FE
:1002B0001EF0100F08BF20ED108A20E9F04F1060EB
:1002C00009B44FF0500080F31188BFF34F8FBFF394
:1002D0006F8F04F079FC4FF0000080F3118809BCA7
:1002E00019680868B0E8F04F1EF0100F08BFB0ECB6
:1002F000108A80F30988BFF36F8F704720000020B9
:10030000EFF305807047000009488047094800471F
:10031000FEE7FEE7FEE7FEE7FEE7FEE7FEE7FEE7B5
:10032000FEE7FEE704480549054A064B7047000012
:100330000534000889010008304F002030550020A6
:10034000305100203051002053EA020C00F0698047
:100350002DE9F04B4FF00006002B1FBFB3FA83F5D9
:1003600003FA05F424FA05F65E4012BF1643B2FA0A
:1003700082F502FA05F4C5F120051EBF22FA05FC3C
:1003800044EA0C04203556EA044C4FEA144418BFE2
:10039000641C4FF000084FF00009904271EB030C11
:1003A00039D3002919BFB1FA81F701FA07F6B0FA7B
:1003B00080F700FA07F6C7F120071EBF20FA07FCF6
:1003C00046EA0C062037B6FBF4FCA7EB0507103F06
:1003D00007F01F0BCBF120060CFA0BFB2CFA06F6EC
:1003E00044BFB3460026202FA4BF5E464FF0000B4B
:1003F0005BEA060C08BF4FF0010B19EB0B09ABFBD6
:10040000027C48EB0608C01B06FB02CC0BFB03CCAE
:1004100071EB0C01C1E70B46024641464846BDE878
:10042000F08B13B54FF000004FF00001AFF30080E8
:10043000BDE81C407047032A40F2308010F0030CE6
:1004400000F0158011F8013BBCF1020F624498BF27
:1004500011F801CB00F8013B38BF11F8013BA2F1C4
:10046000040298BF00F801CB38BF00F8013B11F03F
:10047000030300F07980083AC0F0088051F8043B8B
:10048000083A51F804CBA0E80810F5E7121D5CBF4C
:1004900051F8043B40F8043BAFF30080D20724BF7F
:1004A00011F8013B11F801CB48BF11F8012B24BF13
:1004B00000F8013B00F801CB48BF00F8012B704762
:1004C00002F0FF0343EA032242EA024200F002B8CC
:1004D0004FF000020429C0F0128010F0030C00F06D
:1004E0001B80CCF1040CBCF1020F18BF00F8012BEB
:1004F000A8BF20F8022BA1EB0C0100F00DB85FEAB9
:10050000C17C24BF00F8012B00F8012B48BF00F884
:10051000012B70474FF0000200B5134694469646F3
:10052000203922BFA0E80C50A0E80C50B1F1200106
:10053000BFF4F7AF090728BFA0E80C5048BF0CC0B4
:100540005DF804EB890028BF40F8042B08BF704712
:1005500048BF20F8022B11F0804F18BF00F8012B84
:10056000704770477047704710B5203AC0F00B8055
:10057000B1E81850203AA0E81850B1E81850A0E8A7
:100580001850BFF4F5AF5FEA027C24BFB1E8185001
:10059000A0E8185044BF18C918C0BDE810405FEA71
:1005A000827C24BF51F8043B40F8043B08BF7047ED
:1005B000D20728BF31F8023B48BF11F8012B28BFF2
:1005C00020F8023B48BF00F8012B7047754600F049
:1005D0002BF8AE4605006946534620F007008546D5
:1005E00018B020B5FFF79EFEBDE820404FF0000692
:1005F0004FF000074FF000084FF0000B21F007010B
:10060000AC46ACE8C009ACE8C009ACE8C009ACE84D
:10061000C0098D46704710B50446AFF300802046F0
:10062000BDE81040FFF709BE00487047CC4E0020DF
:1006300001491820ABBEFEE726000200704700BF4C
:10064000FEE7FCB50446002600250027E0780428D4
:1006500023DDE078811E204600F032F80646301295
:100660008DF80400F0B28DF80500E578681EC5B27B
:10067000605D8DF80100681EC5B2605D8DF80000F8
:100680009DF804009DF80010884206D19DF80500F1
:100690009DF80110884200D101273846FCBD0000BA
:1006A00010B5044622464FF40061024800F0D0F92C
:1006B00010BD000000000240704772B600BFFEE7A8
:1006C00030B502460020002309E01C465B1C145D87
:1006D0004440E4B2044D35F8144084EA20200C1E56
:1006E000A1F10101F1DC30BDA200002010B5012014
:1006F0001049087002204870012088700820C870D6
:100700000D4800780871002048710846C078811EA5
:100710000848FFF7D5FF09490880084600880012FD
:100720000449887105480078C8710846C17802F00C
:10073000AFFD10BD2803002004000020A000002011
:100740000120044908700220487088700020C87099
:10075000704700002803002070B50446A56D00F026
:100760007DF9064694F83500022808D0802060659F
:1007700000BF002084F8340000BF012070BD206855
:10078000006820F01600216808602068406920F0A9
:10079000800021684861206C08B9A06C28B12068ED
:1007A000006820F00800216808602068006820F0D8
:1007B00001002168086010E000F050F9801B052856
:1007C0000BD920206065032084F8350000BF00208D
:1007D00084F8340000BF0320D0E72068006800F0F0
:1007E00001000028E8D194F85C103F208840A86000
:1007F000012084F8350000BF002084F8340000BFD9
:1008000000BFBBE7014691F83500022803D08020E5
:10081000486501207047052081F8350008680068A8
:1008200020F001000A6810600020F3E70146486DDF
:100830007047000070B5044600F010F906462546E2
:10084000681C10B104480078054400BF00F006F9A8
:10085000801BA842FAD370BD18000020F8B50246EC
:100860000B460025002400200021D6E0012606FAD0
:1008700001F51E6806EA0504AC4274D11E7906F043
:100880000306012E04D01E7906F00306022E13D1B2
:1008900090684F000326BE40B0434F00DE68BE4064
:1008A00030439060506801268E40B0431E79C6F3F5
:1008B00000168E40304350601E7906F00306032E6A
:1008C00009D0D0684F000326BE40B0434F009E6859
:1008D000BE403043D0601E7906F00306022E13D1CD
:1008E000CF0802F1200656F827004E07F70E0F2614
:1008F000BE40B0434F07FF0E1E69BE403043CF08D5
:1009000002F1200646F8270010684F000326BE407B
:10091000B0431E7906F003064F00BE40304310601E
:100920005E6806F44036002E76D000BF00260096A2
:100930003C4E366846F480463A4F3E603E46366846
:1009400006F48046009600BF00BF374E8F0856F869
:1009500027008E07370F0F26BE40B043334EB242FA
:1009600002D1002624E057E0314EB24201D10126E7
:100970001EE0304EB24201D1022619E02E4EB242A4
:1009800001D1032614E02D4EB24201D104260FE01E
:100990002B4EB24201D105260AE02A4EB24201D1C5
:1009A000062605E0284EB24201D1072600E00826BF
:1009B0008F073F0FBE4030431B4E8F0846F827007D
:1009C000224E3068A0435E6806F4801606B12043CC
:1009D0001E4E3060361D3068A0435E6806F4001677
:1009E00006B12043194E361D3060184E361F306850
:1009F000A0435E6806F4003606B12043134E361F4E
:100A00003060361F3068A0435E6806F4803606B159
:100A100020430E4E083E3060491C1029FFF426AFDB
:100A2000F8BD000044380240083801400000024090
:100A30000004024000080240000C02400010024086
:100A40000014024000180240001C0240083C014013
:100A50000AB1816101E00B048361704701480068BD
:100A6000704700001000002003480068034909781F
:100A70000844014908607047100000201800002059
:100A800010B50D48006840F400700B490860084636
:100A9000006840F4806008600846006840F4807098
:100AA0000860032000F0C8F80F2000F007F800F0FD
:100AB0004BF8002010BD0000003C024070B588B02B
:100AC00004460025002600222146372000F076F853
:100AD000372000F063F800BF00200190164800683E
:100AE00040F02000144908600846006800F020002B
:100AF000019000BF00BF02A903A800F073F900F045
:100B000099F945000D48B5FBF0F0461E0C480D491B
:100B1000086040F2E7310B48C16046600021016186
:100B2000816000F09FFF20B9064800F0CFFF08B0B9
:100B300070BD0120FBE700004038024040420F003A
:100B400000140040B005002008B500BF0020009050
:100B50001148006840F480400F490860084600686A
:100B600000F48040009000BF00BF00BF0020009054
:100B7000081F006840F08050091F086008460068A0
:100B800000F08050009000BF00BF00220F21901E97
:100B900000F014F808BD0000443802400146084641
:100BA000002809DB00F01F0301229A4043099B0043
:100BB00003F1E023C3F8002100BF70472DE9F05F87
:100BC00080460D461646002702F0E4FE07463946E9
:100BD0002A46334601F00700C0F1070ABAF1040FB4
:100BE00002D94FF0040A01E0C0F1070AD14600F132
:100BF000040ABAF1070F02D24FF0000A01E0A0F197
:100C0000030AD4464FF0010A0AFA09FAAAF1010AC6
:100C10000AEA020A0AFA0CFA4FF0010B0BFA0CFB73
:100C2000ABF1010B0BEA030B4AEA0B0421464046E9
:100C300002F0B8FEBDE8F09F00BF00F00702064BCF
:100C400019684FF6FF031940044B0B4343EA022196
:100C5000014B196000BF70470CED00E00000FA0581
:100C600070B504460D460CB9012070BD58480068A7
:100C700000F00700A84209D255490D7008460068E7
:100C800000F00700A84201D00120EEE7207800F034
:100C9000020002281DD1207800F00400042805D1AC
:100CA0004C48006840F4E0504A490860207800F061
:100CB0000800082805D14748006840F460404549CD
:100CC00008604448006820F0F000A16808434149EA
:100CD0000860207800F00100A8B36068012807D1FF
:100CE0003C4808380068C0F34040B8B90120BCE770
:100CF0006068022802D06068032807D135480838A8
:100D00000068C0F3406048B90120AEE731480838B8
:100D10000068C0F3400008B90120A6E72D4800682C
:100D200020F00300616808432A490860FFF796FE37
:100D3000064609E0FFF792FE801B41F288318842A7
:100D400002D9032091E707E02248006800F00C0078
:100D50006168B0EB810FEDD11D48006800F007001D
:100D6000A84209D91A490D700846006800F007002A
:100D7000A84201D0012078E7207800F00400042880
:100D800007D11448006820F4E050E1680843114995
:100D90000860207800F00800082808D10D48006895
:100DA00020F46040216940EAC1000A49086000F06F
:100DB00061F808490968C1F30311074A515CC8404A
:100DC0000649086006480068FFF778FE00204CE7F7
:100DD000003C024008380240005A00081C00002075
:100DE000140000200F2202600D4A126802F0030274
:100DF00042600B4A126802F0F0028260084A1268F0
:100E000002F4E052C260064A126802F46042D2085C
:100E10000261044A126802F007020A60704700008B
:100E200008380240003C024001480068704700005A
:100E30001C00002000B5FFF7F7FF04490968C1F363
:100E40008221034A515CC84000BD000008380240BE
:100E5000105A000800B5FFF7E7FF04490968C1F31D
:100E60004231034A515CC84000BD000008380240CE
:100E7000105A00082DE9F047002400250026A1465D
:100E80002548006800F00C0020B1042805D008288F
:100E90003AD105E0DFF8849039E0DFF8849036E05D
:100EA0001D48001F006800F03F041B48001F006839
:100EB00000F4800078B11A481749091F0968C1F386
:100EC0008811A0FB01700146224600233846FFF737
:100ED0003BFA05460EE011480F49091F0968C1F3A6
:100EE0008811A0FB01700146224600233846FFF717
:100EF0002BFA05460848001F0068C0F30140401C5B
:100F00004600B5FBF6F902E0DFF8109000BF00BF25
:100F10004846BDE8F0870000083802400024F4008D
:100F200040787D01F8B504460CB90120F8BD207861
:100F300000F00100002874D0F948006800F00C00AF
:100F400004280DD0F648006800F00C00082813D1E2
:100F5000F348001F006800F48000B0F5800F0BD14B
:100F6000EF4808380068C0F34040002859D0606856
:100F7000002856D10120D9E700BF6068B0F5803F56
:100F800008D1E7480838006840F48030E44908395F
:100F900008601EE06068B0F5A02F0DD1E048083869
:100FA000006840F48020DE4908390860084600687F
:100FB00040F4803008600CE0D9480838006820F41C
:100FC0008030D749083908600846006820F480203E
:100FD000086000BF606890B1FFF740FD054606E07D
:100FE000FFF73CFD401B642801D903209EE7CC4855
:100FF00008380068C0F340400028F1D011E0FFF746
:101000002DFD054606E0FFF729FD401B642801D9A8
:1010100003208BE7C24808380068C0F3404000282E
:10102000F1D1207800F0020002285FD1BC480068AE
:1010300000F00C0058B1BA48006800F00C00082815
:101040001CD1B748001F006800F48000B0B9B44854
:1010500008380068C0F3400020B1E068012801D0E2
:10106000012063E7AE480838006820F0F8002169E5
:1010700040EAC100AA490839086037E0E06800B3D7
:101080000120A8490860FFF7E9FC054606E0FFF7E4
:10109000E5FC401B022801D9032047E7A048083897
:1010A0000068C0F340000028F1D09D48083800686F
:1010B00020F0F800216940EAC10099490839086028
:1010C00014E0002097490860FFF7C8FC054606E0D9
:1010D000FFF7C4FC401B022801D9032026E79048F3
:1010E00008380068C0F340000028F1D1207800F0F3
:1010F000080008282CD16069A8B101208A4908603D
:10110000FFF7ACFC054606E0FFF7A8FC401B0228F1
:1011100001D903200AE782486C300068C0F3400020
:101120000028F1D014E000207F490860FFF796FC0A
:10113000054606E0FFF792FC401B022801D9032078
:10114000F4E677486C300068C0F340000028F1D125
:10115000207800F00400042870D10027704838304F
:10116000006800F0805090B900BF002000906C48EB
:101170003830006840F080506949383108600846CE
:10118000006800F08050009000BF00BF0127674852
:10119000006800F48070B0B96448006840F4807062
:1011A00062490860FFF75AFC054606E0FFF756FC67
:1011B000401B022801D90320B8E65C48006800F40F
:1011C00080700028F2D000BFA068012808D15448E0
:1011D0006830006840F001005149683108601DE046
:1011E000A06805280DD14E486830006840F0040022
:1011F0004B49683108600846006840F0010008600B
:101200000CE047486830006820F00100444968312C
:1012100008600846006820F00400086000BFA0686D
:10122000A8B1FFF71BFC054609E0FFF717FC401BC0
:1012300041F28831884202D9032077E626E0384817
:1012400068300068C0F340000028EED013E0FFF7DC
:1012500005FC054608E0FFF701FC401B41F2883120
:10126000884201D9032061E62D4868300068C0F348
:1012700040000028EFD1012F07D1294838300068FD
:1012800020F0805026493831086000BFA06900284E
:1012900045D02348006800F00C0008285DD0A06904
:1012A000022845D100201F490866FFF7D7FB0546F5
:1012B00006E0FFF7D3FB401B022801D9032035E6E7
:1012C000174808380068C0F340600028F1D1D4E91D
:1012D00007010843616A40EA81110122A06AC2EB5A
:1012E000500041EA00412C20005D41EA00600C49B9
:1012F000091F086001200B490866FFF7AFFB054690
:1013000006E0FFF7ABFB401B022801D903200DE6E6
:10131000034808380068C0F340600028F1D049E075
:101320000838024000004742800E474200700040EB
:10133000002021490866FFF791FB054606E0FFF70C
:101340008DFB401B022801D90320EFE51B480068F4
:10135000C0F340600028F2D12CE0A069012800D140
:10136000E4E51648001D0668A069012820D006F4AF
:101370008001E06981421BD106F03F01206A814271
:1013800016D147F6C0703040616AB0EB811F0FD1B3
:1013900006F440310122A06AC2EB5000B1EB004FCD
:1013A00006D106F070612C20005DB1EB006F01D01A
:1013B0000120BBE50020B9E50000474200380240AB
:1013C00070470000F0B589B004460E4600270320A0
:1013D00084F83400606C032820D0B6F5805F04D117
:1013E000A06B40F08050A0631CE0B6F5006F07D101
:1013F000204601F0EEFE0546A06B2843A06311E0F5
:101400003EB9204601F0B1FE0546A06B2843A0631B
:1014100008E0A06B40F00060A06303E0A06B40F028
:101420008050A063A06B38B1174821688863012001
:1014300084F83400012713E060680390A0680490EA
:10144000E0680590069660690790A069089006A874
:1014500007C88DE80700206803A90EC901F0F0F85D
:101460004FF40071206801F063F9054635B1064874
:1014700021688863A06B2843A0630127012084F8BA
:101480003400384609B0F0BDFF0540007047000049
:1014900010B50246506E800F0870506EC0F3836026
:1014A0004870506EC0F301608870506E000CC870B8
:1014B000B2F86400000A087192F864004871906EF6
:1014C000000DC880906EC0F3034008726820805AF7
:1014D000C0F3C03048726820805AC0F380308872F0
:1014E0006820805AC0F34030C8726820805AC0F328
:1014F0000030087300204873506C002836D16820F3
:10150000805A8005030DD06E43EA90700861D06E5A
:10151000C0F3C2600875D06EC0F302604875D06E2B
:10152000C0F342508875D06EC0F38240C875D06E4B
:10153000C0F3C23008760869401C50650B7E506DC0
:1015400003F007039B1C01249C4060435065087A0C
:1015500000F00F03012098409065D2E915035B0A63
:101560005843D0654FF40073136621E0506C012896
:1015700013D16820805C8006830AD06E43EA104055
:1015800008610869401C83025365536DD3654FF4AD
:1015900000739365936D13660AE02E481368986391
:1015A000906B40F080509063012082F8340010BDB1
:1015B0006C20805AC0F3803001F8190F6C20805ADB
:1015C000C0F3C61048706C20805C00F07F0088700B
:1015D000106FC00FC870106FC0F341700871106FAA
:1015E000C0F382604871106FC0F383508871106F30
:1015F000C0F34050C87100200872106FC0F3004063
:1016000048727020805AC0F3C03088727020805AAF
:10161000C0F38030C8727020805AC0F34030087325
:101620007020805AC0F3003048737020805AC0F395
:10163000812088737020805AC0F30120C873702005
:10164000805CC0F3460008740120487419390020FA
:10165000ADE70000FF054000F8B50446002000900B
:101660006946204601F069FD054615B1A06B284387
:10167000A0630098C0F343263046F8BD70B5044619
:10168000256B2068406BC0F3C03030B105F0080016
:1016900018B1204601F02CFDF8E02068406BC0F343
:1016A0000020002862D04FF4807021688863206891
:1016B000C06B4CF23A3188432168C8632068C06A25
:1016C00020F001002168C86205F0080038B305F079
:1016D000020010B905F0200050B1206801F034F983
:1016E00006462EB1A06B3043A0632046FFF7CEFE26
:1016F00040F23A5021688863012084F834000020C9
:10170000206305F0010010B905F0020018B1204671
:1017100000F0A4F9BAE0204600F0A1F9B6E005F027
:1017200080000028B8D005F0200050B1206801F0FA
:101730000BF906462EB1A06B3043A0632046FFF79D
:10174000A5FE05F001000028A6D105F00200002842
:10175000A2D12068C06A20F008002168C862012078
:1017600084F83400204600F07AF98FE02068406B5E
:10177000C0F3803030B105F0080018B1204601F008
:101780005CFD83E02068406B40F23A21084008B1DC
:10179000012000E00020002878D02068406BC0F3D2
:1017A000400018B1A06B40F00200A0632068406BBD
:1017B000C0F3C00018B1A06B40F00800A06320681F
:1017C000406BC0F3401018B1A06B40F02000A06344
:1017D0002068406BC0F3001018B1A06B40F01000FF
:1017E000A0632068406BC0F3402018B1A06B40F0AC
:1017F0000800A06340F23A70216888632068C06BDB
:1018000040F23A3188432168C863206801F09CF8AF
:10181000A16B0843A06305F0080040B1012084F8E3
:101820003400002020632046FFF730FE2EE005F054
:10183000800000B305F0100010B905F0200050B191
:101840001348E16B0865E06BFEF7DCFF98B1E06BD5
:1018500001F0A2FA1AE005F0010010B905F002004B
:1018600050B10C48216C0865206CFEF7CBFF10B11D
:10187000206C01F06DFA09E00020A063012084F8DB
:101880003400002020632046FFF79AFD70BD000061
:10189000992D0008512D000810B504460CB90120FF
:1018A00010BD94F8340020B900202077204600F0C5
:1018B00069F8032084F83400204600F00BF808B1E2
:1018C0000120EDE70020A0632063012084F83400AC
:1018D0000020E5E770B58AB004460020049005902A
:1018E0000690079008907620099007A807C88DE811
:1018F0000700206804A90EC900F0A2FE064616B132
:1019000001200AB070BD00201C490860206800F06A
:10191000B1FE01201949A039C1F8A0000220FEF74C
:1019200089FF204601F07EFB05463DB1012084F889
:101930003400A06B2843A0630120E2E7204601F0B9
:10194000F0FA05463DB1012084F83400A06B28432D
:10195000A0630120D5E74FF40071206800F0E8FE95
:1019600005464DB1064821688863A06B2843A063F3
:10197000012084F83400C4E70020C2E7A08025429B
:10198000FF05400010B586B00446142101A8FEF7FB
:10199000C1FD2E492068884255D100BF002000902B
:1019A0002B48006840F40060294908600846006838
:1019B00000F40060009000BF00BF00BF0020009056
:1019C00023481438006840F00400214914390860A5
:1019D0000846006800F00400009000BF00BF00BF90
:1019E000002000900846006840F0080008600846A3
:1019F000006800F00800009000BF00BF4FF4F850EE
:101A000001900220029000200390032004900C20FB
:101A1000059001A90F48FEF721FF04200190022044
:101A2000029000200390032004900C20059001A94F
:101A30000948FEF713FF002205213120FFF7BEF809
:101A40003120FFF7ABF806B010BD0000002C0140BC
:101A50004438024000080240000C024070477047C2
:101A60007047704710B504460CB9012010BD94F8BA
:101A70003D0028B9002084F83C00204600F025F8FD
:101A8000022084F83D00211D206801F0CDFC0120DA
:101A900084F8460000BF84F83E0001213F20015534
:101AA000402001554120015500BF00BF012084F8AE
:101AB000420043200155442001554520015500BFF7
:101AC000012084F83D000020D0E77047014691F8DE
:101AD0003D00012801D001207047022081F83D001F
:101AE0000868C06840F001000B68D8601A4B0868AD
:101AF00098421BD00868B0F1804F17D0174B086888
:101B0000984213D0164B086898420FD0154B0868BE
:101B100098420BD0144B0868984207D0134B0868C2
:101B2000984203D0124B086898420CD1086880682C
:101B300000F00702062A0CD00868006840F0010097
:101B40000B68186005E00868006840F001000B6849
:101B500018600020C0E700000000014000040040C1
:101B600000080040000C004000040140004001401B
:101B700000180040704710B5044620680069C0F3A3
:101B80004000D8B12068C068C0F34000B0B16FF029
:101B9000020021680861012020772068806900F038
:101BA000030018B12046FFF7E5FF05E0204600F0EE
:101BB000ADF8204600F0ABF80020207720680069DF
:101BC000C0F38000D8B12068C068C0F38000B0B115
:101BD0006FF0040021680861022020772068806986
:101BE00000F4407018B12046FFF7C4FF05E020461E
:101BF00000F08CF8204600F08AF80020207720685A
:101C00000069C0F3C000D8B12068C068C0F3C0004C
:101C1000B0B16FF0080021680861042020772068C7
:101C2000C06900F0030018B12046FFF7A3FF05E0EC
:101C3000204600F06BF8204600F069F8002020777D
:101C400020680069C0F30010D8B12068C068C0F3F4
:101C50000010B0B16FF010002168086108202077F3
:101C60002068C06900F4407018B12046FFF782FF79
:101C700005E0204600F04AF8204600F048F8002031
:101C800020772068006900F0010058B12068C06822
:101C900000F0010030B16FF00100216808612046BA
:101CA00000F036F820680069C0F3C01058B1206811
:101CB000C068C0F3C01030B16FF0800021680861C7
:101CC0002046FFF7CDFE20680069C0F3801058B1B0
:101CD0002068C068C0F3801030B16FF04000216808
:101CE0000861204600F020F820680069C0F3401029
:101CF00058B12068C068C0F3401030B16FF02000C8
:101D0000216808612046FFF7ACFE10BD70477047A0
:101D100010B5044603492068884201D1FEF7A4FEAD
:101D200010BD0000001400407047704710B5044615
:101D300000BF00BF21680C3151E8001F21F49070F2
:101D400021680C3141E80002002AF3D100BF00BF36
:101D500000BF2168143151E8001F21F00100216803
:101D6000143141E80002002AF3D100BF206B0128A2
:101D70000ED100BF00BF21680C3151E8001F21F0D7
:101D8000100021680C3141E80002002AF3D100BFA5
:101D90002068406900F04000402820D100BF00BF0B
:101DA0002168143151E8001F21F0400021681431EE
:101DB00041E80002002AF3D100BFA06B78B10020F7
:101DC000A16B0865A06BFEF7C7FC40B1A06BFEF7E6
:101DD0002DFD202803D110202064032010BD0020F9
:101DE000E085202084F83E000020206300BFF5E756
:101DF00010B504460548844207D101200449087003
:101E0000FF220449044800F043FA10BD6C0500208D
:101E10000D00002027040020280500202DE9F84FA0
:101E20000446206805682068C668206847694FF046
:101E30000009CA4605F00F09B9F1000F0AD105F0F3
:101E4000200038B106F0200020B1204601F0A8FBA8
:101E5000BDE8F88FB9F1000F7CD007F0010018B988
:101E600006F49070002875D005F0010030B106F43A
:101E7000807018B1206C40F00100206405F004006F
:101E800030B107F0010018B1206C40F0020020646E
:101E900005F0020030B107F0010018B1206C40F0ED
:101EA0000400206405F0080048B106F0200010B9D5
:101EB00007F0010018B1206C40F008002064206C8D
:101EC000002846D005F0200028B106F0200010B10F
:101ED000204601F065FB20684069C0F3801A206C41
:101EE00000F0080010B9BAF1000F2DD0204601F023
:101EF00011FB2068406900F04000402820D100BF5D
:101F000000BF2168143151E8001F21F04000216812
:101F1000143141E80002002AF3D100BFA06B50B198
:101F20007548A16B0865A06BFEF76CFC88B1A06BCF
:101F3000016D88470DE02046FFF75AFF09E009E0F0
:101F40002046FFF755FF04E02046FFF751FF002031
:101F500020647DE7206B012876D105F01000002871
:101F600072D006F010000028FAD000BF00200090C8
:101F700020680068009020684068009000BF00BFA3
:101F80002068406900F0400040285ED1A06B0068E6
:101F900040681FFA80F8B8F1000F54D0A08D40457A
:101FA00051DDA4F82E80A06BC069B0F5807F43D0CE
:101FB00000BF00BF21680C3151E8001F21F4807080
:101FC00021680C3141E80002002AF3D100BF00BFB4
:101FD00000BF2168143151E8001F21F00100216881
:101FE000143141E80002002AF3D100BF00BF00BF56
:101FF0002168143151E8001F21F04000216814319C
:1020000041E80002002AF3D100BF202084F83E00FE
:102010000020206300BF00BF21680C3151E8001F81
:1020200021F0100021680C3141E80002002AF3D1B0
:1020300000BFA06BFEF790FBA08DE28D801A81B2ED
:102040002046FFF772FE03E740E0A08DE18D401AC5
:102050001FFA80F8E08DC0B3B8F1000F35D000BF93
:1020600000BF21680C3151E8001F21F490702168F5
:102070000C3141E80002002AF3D100BF00BF00BFCD
:102080002168143151E8001F21F00100216814314A
:1020900041E80002002AF3D100BF202084F83E006E
:1020A0000020206300BF00BF21680C3151E8001FF1
:1020B00021F0100021680C3141E80002002AF3D120
:1020C00000BF41462046FFF730FEC1E605F0800024
:1020D00030B106F0800018B1204601F018FCB7E6D8
:1020E00005F0400030B106F0400018B1204601F084
:1020F00047FAADE600BFABE60135000810B504466F
:102100000CB9012010BDA06900B100E000BF94F837
:102110003D0028B9002084F83C00204600F028F853
:10212000242084F83D002068C06820F40050216815
:10213000C860204601F0B0FA2068006920F49040A1
:10214000216808612068406920F02A002168486100
:102150002068C06840F400502168C86000202064F6
:10216000202084F83D0084F83E000020CAE70000EB
:1021700010B586B00446142101A8FEF7CBF93F49FB
:102180002068884239D100BF002000903C48006898
:1021900040F010003A4908600846006800F010005E
:1021A000009000BF00BF00BF0020009034481438EA
:1021B000006840F0010032491439086008460068A0
:1021C00000F00100009000BF00BF4FF4C06001901C
:1021D0000220029000200390032004900720059025
:1021E00001A92848FEF73AFB002205212520FEF729
:1021F000E5FC2520FEF7D2FC3DE02349206888421B
:1022000039D100BF002000901D48001F006840F435
:1022100000301B49091F08600846006800F40030C0
:10222000009000BF00BF00BF002000901448143889
:10223000006840F008001249143908600846006838
:1022400000F00800009000BF00BF60200190022055
:10225000029000200390032004900720059001A91C
:102260000A48FEF7FBFA002205212620FEF7A6FC0D
:102270002620FEF793FC06B010BD000000100140C0
:10228000443802400000024000440040000C02407C
:1022900070B504460D46164694F83E00202816D127
:1022A00005B10EB9012070BD00BF94F83C000128B3
:1022B00001D10220F7E7012084F83C0000BF002094
:1022C000206332462946204601F0FCFAEBE7022063
:1022D000E9E7000010B504460448844204D1FF2217
:1022E00003490448FFF7D4FF10BD00006C0500202F
:1022F000270400202805002010B5034693F83D0070
:10230000202823D101B10AB9012010BD00BF93F8E4
:102310003C00012801D10220F7E7012083F83C00AE
:1023200000BF19629A84DA8400201864212083F89F
:102330003D0000BF002083F83C0000BF1868C06863
:1023400040F080001C68E0600020DEE70220DCE74F
:102350000349884202D10121024A117070470000EE
:102360006C0500200C00002000BFFEE710B50446FD
:10237000A078012802D0022806D102E0FEF7B6F9C3
:1023800002E0FEF7DDF900BF00BF10BD10B5FF226F
:1023900005490648FFF77CFF054A0021054801F082
:1023A00081FB0549086010BD270400202805002096
:1023B000DC590008B93200080800002000B587B0D9
:1023C000142102A8FEF7A6F800BF00200190514892
:1023D000006840F080004F4908600846006800F03F
:1023E0008000019000BF00BF00BF002001900846A0
:1023F000006840F0100008600846006800F0100017
:10240000019000BF00BF00BF002001900846006897
:1024100040F0020008600846006800F002000190E9
:1024200000BF00BF00BF002001900846006840F0D8
:10243000080008600846006800F00800019000BF2E
:1024400000BF00BF002001900846006840F0040073
:1024500008600846006800F00400019000BF00BF5B
:1024600000BF002001900846006840F001000860AD
:102470000846006800F00100019000BF00BF002284
:102480004FF680712448FEF7E3FA00224FF4E4513E
:102490002248FEF7DDFA00224FF400612048FEF7E3
:1024A000D7FA4FF68070029001200390002004902C
:1024B000059002A91848FEF7D1F94FF48060029008
:1024C00000200390049002A91648FEF7C7F94FF4C4
:1024D000E45002900120039000200490059002A98E
:1024E0000E48FEF7BBF98020029000200390049074
:1024F00002A90D48FEF7B2F94FF4006002900120E6
:10250000039000200490059002A90548FEF7A6F963
:1025100007B000BD3038024000100240000C0240FD
:1025200000000240000402400008024010B50D48BF
:102530000D4908600020486000210B488160C1609F
:10254000016141618161FFF7A7F908B1FEF7B5F8B4
:102550004FF400610448FEF735FF08B1FEF7ADF80F
:1025600010BD0000002C0140A402002010B50B4853
:102570000B4908604FF4E130486000210848816051
:10258000C16001610C21416100218161C161FFF7DE
:10259000B5FD08B1FEF791F810BD00000010014034
:1025A0002805002010B50B480B4908604FF4E130B6
:1025B0004860002108488160C16001610C214161CF
:1025C00000218161C161FFF799FD08B1FEF775F83F
:1025D00010BD0000004400406C05002000BFFEE775
:1025E00000BFFEE710B50246002308685062486845
:1025F0009062D1E9020420430C6920434C692043D6
:102600000343D06A20F0F7001843D062002010BDC9
:1026100001460869C0B270470146086800F003002F
:102620007047024602F11400431818687047000012
:1026300010B50248FFF722F810BD0000A4020020E8
:102640000FB410B504460021DDE903021043059ADA
:102650001043069A1043079A1043089A1043014307
:10266000606847F6FF62904308436060002010BC3A
:102670005DF814FB01460320086000207047014606
:10268000D1F88000704710B50246002308689060BA
:10269000D1E901042043CC6820430C692043034363
:1026A000D0686FF30B001843D060002010BD0246C5
:1026B0000868C2F880000020704770B585B00546F4
:1026C0000C46009437200190402002900020039097
:1026D0004FF48060049069462846FFF7D4FF41F22A
:1026E00088323721284600F06DF90646304605B09D
:1026F00070BD000070B585B005460C460B48204300
:1027000000902920019040200290002003904FF477
:102710008060049069462846FFF7B5FF284600F020
:1027200059FA0646304605B070BD00000000108022
:1027300070B585B005460C460094102001904020ED
:102740000290002003904FF4806004906946284670
:10275000FFF799FF41F288321021284600F032F944
:102760000646304605B070BD70B585B005460C46CE
:1027700000940620019040200290002003904FF426
:102780008060049069462846FFF77DFF41F2883259
:102790000621284600F016F90646304605B070BD01
:1027A00030B585B00446002000900190029003905F
:1027B0004FF48060049069462046FFF764FF20468E
:1027C00000F0E0F80546284605B030BD30B585B0CC
:1027D00004464FF4D57000900820019040200290EC
:1027E000002003904FF48060049069462046FFF774
:1027F0004AFF204600F076FA0546284605B030BD6F
:10280000F0B585B0064614461D4600940720019099
:1028100040200290002003904FF4806004906946AD
:102820003046FFF730FF41F288320721304600F092
:10283000C9F80746384605B0F0BD30B585B0044646
:102840000020009002200190C02002900020039000
:102850004FF48060049069462046FFF714FF20463D
:1028600000F086F90546284605B030BD70B585B044
:1028700005460C46009409200190C02002900020DB
:1028800003904FF48060049069462846FFF7FBFEF2
:10289000284600F06DF90646304605B070BD30B5EB
:1028A00085B0044600200090332001904020029023
:1028B000002003904FF48060049069462046FFF7A3
:1028C000E2FE41F288323321204600F07BF80546D3
:1028D000284605B030BD70B585B005460C4600945D
:1028E0000D20019040200290002003904FF4806062
:1028F000049069462846FFF7C6FE41F288320D2152
:10290000284600F05FF80646304605B070BD70B549
:1029100085B005460C460020009003200190402021
:102920000290002003904FF480600490694628468E
:10293000FFF7A9FE22460321284600F077F9064654
:10294000304605B070BD000030B585B004460020AB
:1029500000900C20019040200290002003904FF442
:102960008060049069462046FFF78DFE044A0C21E2
:10297000204600F027F80546284605B030BD000087
:1029800000E1F50501460E480068C0084FF47A736F
:10299000B0FBF3F041F2883300FB03F200BF101EDE
:1029A000A2F1010202D14FF000407047486B00F0E5
:1029B00080000028F3D0C52088630020F5E70000E0
:1029C0001C0000202DE9F04305460F46904666485E
:1029D0000068C0084FF47A71B0FBF1F000FB08F911
:1029E00000BFB9F10000A9F1010903D14FF0004087
:1029F000BDE8F0836E6B06F045000028F1D006F4C8
:102A000000600028EDD1686B00F0040010B10420D4
:102A1000A863EDE7686B00F0010010B10120A86326
:102A2000E6E7C520A8632846FFF7F2FDB84201D0CB
:102A30000120DDE700212846FFF7F3FD04464B485F
:102A4000204008B90020D3E704F00040B0F1004F67
:102A500002D14FF00070CBE704F08040B0F1804F1E
:102A600001D14020C4E704F00050B0F1005F01D173
:102A70008020BDE704F08050B0F1805F02D14FF4B8
:102A80008070B5E704F00060B0F1006F02D14FF440
:102A90000070ADE704F08060B0F1806F02D14FF4B8
:102AA0008060A5E704F08070B0F1807F02D14FF420
:102AB00000609DE704F40000B0F5000F02D14FF470
:102AC000805095E704F48000B0F5800F02D14FF4F8
:102AD00000508DE704F40010B0F5001F02D14FF450
:102AE000804085E704F48010B0F5801F02D14FF4D8
:102AF00000407DE704F48020B0F5802F02D14FF430
:102B0000003075E704F40030B0F5003F02D14FF417
:102B100080206DE704F48030B0F5803F02D14FF49F
:102B2000002065E704F40040B0F5004F02D14FF4F7
:102B300080105DE704F48040B0F5804F02D14FF47F
:102B4000001055E704F40050B0F5005F02D14FF4D7
:102B500080004DE704F00800082801D1000547E790
:102B60004FF4803044E700001C00002008E0FFFD27
:102B700010B5014616480068C0084FF47A74B0FBDF
:102B8000F4F041F2883400FB04F300BF181EA3F1F7
:102B9000010302D14FF0004010BD4A6B02F0450026
:102BA0000028F3D002F400600028EFD1486B00F059
:102BB000040010B104208863EEE7486B00F00100C8
:102BC00010B101208863E7E7C52088630020E3E7B0
:102BD0001C00002010B5014613480068C0084FF4DF
:102BE0007A74B0FBF4F041F2883400FB04F300BFC8
:102BF000181EA3F1010302D14FF0004010BD4A6B33
:102C000002F045000028F3D002F400600028EFD164
:102C1000486B00F0040010B104208863EEE7C52083
:102C200088630020EAE700001C0000202DE9F04343
:102C300004460F4690462A480068C0084FF47A714F
:102C4000B0FBF1F041F2883100FB01F900BFB9F1AE
:102C50000000A9F1010903D14FF00040BDE8F08365
:102C6000666B06F045000028F1D006F400600028ED
:102C7000EDD1606B00F0040010B10420A063EDE71B
:102C8000606B00F0010010B10120A063E6E7204670
:102C9000FFF7BEFCB84201D00120DFE7C520A063EA
:102CA00000212046FFF7BDFC054605F4604020B931
:102CB000280CA8F800000020D0E705F48040B0F50B
:102CC000804F02D14FF40050C8E705F40040B0F542
:102CD000004F02D14FF48050C0E74FF48030BDE781
:102CE0001C00002010B5014618480068C0084FF4C9
:102CF0007A74B0FBF4F041F2883400FB04F300BFB7
:102D0000181EA3F1010302D14FF0004010BD4A6B21
:102D100002F045000028F3D002F400600028EFD153
:102D2000486B00F0040010B104208863EEE7486BA4
:102D300000F0010010B101208863E7E7486B00F064
:102D4000400008B1402088630020DFE71C0000201D
:102D500070B50546AC6B40F23A5021688863204656
:102D6000FEF77AFC0646012084F834000020206338
:102D7000062E01D0052E05D12068FFF7E5FDA16BD9
:102D80000843A063A06B18B92046FEF719FB02E0C8
:102D90002046FEF77BFB70BD70B50546AC6B40F27C
:102DA0003A50216888632046FEF756FC064601200B
:102DB00084F8340000202063062E01D0052E05D1B2
:102DC0002068FFF7C1FDA16B0843A063A06B18B991
:102DD0002046FEF7F5FA02E02046FEF757FB70BDED
:102DE0002DE9F04389B004460F46FDF737FE8146D2
:102DF0004FF000080020019002903E460821206814
:102E0000FFF796FC05461DB1284609B0BDE8F083E2
:102E10005022125B11042068FFF74FFC05460DB1EC
:102E20002846F2E74FF0FF3003900820049030204E
:102E3000059002200690002007900120089003A929
:102E40002068FFF7CFFB2068FFF729FD05460DB18D
:102E50002846DAE71CE02068406B00F4001040B11F
:102E60002068FFF70CFC01A941F8280008F10108CF
:102E700005E02068406B00F4005000B90EE0FDF75B
:102E8000EDFDA0EB0900401C10B94FF00040BCE77D
:102E90002068406B00F02A000028DCD000BF2068CA
:102EA000406B00F0080018B1082021688863ACE787
:102EB0002068406B00F0020018B10220216888638E
:102EC000A3E72068406B00F0200018B120202168A3
:102ED00088639AE740F23A502168886302980006B6
:102EE000029901F47F4140EA0120029901F47F0137
:102EF00040EA1120029940EA11603060361D0198C5
:102F00000006019901F47F4140EA0120019901F492
:102F10007F0140EA1120019940EA116030600020F1
:102F200073E730B58FB00446012003902068FFF7A7
:102F300073FB18B94FF080600FB030BD606C032890
:102F40001BD02068FFF779FC05460DB12846F3E752
:102F500000212068FFF765FB606704212068FFF708
:102F600060FBA06708212068FFF75BFBE0670C218E
:102F70002068FFF756FB80210851606C032807D0BA
:102F800003A92068FFF7C3FC05460DB12846D3E727
:102F9000606C032820D0BDF80C1021655022125B14
:102FA00011042068FFF762FC05460DB12846C3E70F
:102FB00000212068FFF735FB606604212068FFF7D9
:102FC00030FBA06608212068FFF72BFBE0660C2190
:102FD0002068FFF726FB206704212068FFF721FB0C
:102FE000010DE16404A92046FEF752FA10B14FF03A
:102FF0008050A1E75020005B01040A4600232068AE
:10300000FFF7FEFB05460DB1284695E7D4E904120B
:10301000A069CDE90012029094E80F00FFF710FBC1
:10302000002089E7F8B5044600200090002600271C
:103030002068FFF7B5FB05460DB12846F8BD2068AE
:10304000FFF7C4FB054645B10021A1642068FFF7E6
:10305000A7FB05461DB12846F0E70121A164A06C3D
:10306000012808D100212068FFF727FB054615B18C
:103070004FF08050E2E71DE000212068FFF71DFBC4
:1030800005460DB12846D9E718492068FFF732FBFD
:10309000054615B14FF08050D0E700212068FFF7BA
:1030A000C0FA0646012080EAD67080F00107009839
:1030B000401C00904FF6FF710098884201D2002F0B
:1030C000DAD04FF6FF710098884202D34FF080703B
:1030D000B4E706F08040B0F1804F02D10120606477
:1030E00001E0002060640020A8E70000000010C19B
:1030F0002DE9F0410546AC6AEF6AE7B14FF00008F0
:1031000014E02868FFF7BBFA06462670641C7F1E91
:10311000300A2070641C7F1E300C2070641C7F1EDF
:10312000300E2070641C7F1E08F10108B8F1080FF2
:10313000E7D3AC62EF62BDE8F08170B504460D469E
:1031400015B94FF0006070BD5022125B1104206869
:10315000FFF7C1FB06460EB13046F4E700212068B8
:10316000FFF75FFA28600020EDE77CB504460020F9
:103170000090019000212068FFF753FA00F00070E2
:10318000B0F1007F02D14FF400607CBD694620465B
:10319000FFF726FE05460DB12846F6E7019800F434
:1031A000803098B15022125B11042068FFF785FA35
:1031B00005460DB12846E8E700212068FFF7D4FA5C
:1031C00005460DB12846E0E70020DEE74FF08060BD
:1031D000DBE77CB5044600200090019000212068C8
:1031E000FFF71FFA00F00070B0F1007F02D14FF43A
:1031F00000607CBD69462046FFF7F2FD05460DB133
:103200002846F6E7019800F4802098B15022125B1E
:1032100011042068FFF751FA05460DB12846E8E78A
:1032200002212068FFF7A0FA05460DB12846E0E725
:103230000020DEE74FF08060DBE7F8B505462C6A3A
:103240006E6A1EB300271DE020780090641C761E75
:103250002078009941EA00200090641C761E2078B6
:10326000009941EA00400090641C761E2078009985
:1032700041EA00600090641C761E69462868FFF7EA
:1032800016FA7F1C082FDFD32C626E62F8BD000097
:1032900070B504460D460120FDF702FA2A46214684
:1032A0000448FFF729F806460020FDF7F9F93046F3
:1032B00070BD00002805002000BF1D48C08DC0F172
:1032C000FF0018B31B480078012820D11948407826
:1032D00002281CD11748C0781549C98DC1F1FF01DA
:1032E000884214D11348FDF7ACF9012802D11148E6
:1032F000FFF73CF8FF210F48FDF7EAF80C48FEF70E
:1033000015FDFF220B490A48FEF7C2FF0BE0FF2123
:103310000848FDF7DDF80648FEF708FDFF220549DD
:103320000348FEF7B5FF142000F067FBC5E7000077
:10333000280500202704002010B54FF0E020006988
:1033400002F0F0F8012801D001F03AFD10BD0000B4
:1033500000B593B0302107A8FDF7DCF8142102A8CE
:10336000FDF7D8F800BF002001902448006840F025
:103370008050224908600846006800F080500190A3
:1033800000BF00BF00BF002001901D48006840F44E
:1033900080401B4908600846006800F480400190A6
:1033A00000BF00BF012007900004089002200D908C
:1033B00041050E9119210F914FF4A871109102212E
:1033C00011910721129107A8FDF7ACFD08B1FDF797
:1033D00074F90F20029002200390002004904FF413
:1033E000A05005904FF480500690052102A8FDF7EB
:1033F00037FC08B1FDF761F913B000BD4038024059
:10340000007000400348006840F470000149086003
:103410007047000088ED00E010B50248FEF7ABFBF6
:1034200010BD0000B005002010B50268294B98427D
:103430000ED0B0F1804F0BD0274B984208D0274BCD
:10344000984205D0264B984202D0264B984203D191
:1034500022F070024B681A431E4B984220D0B0F104
:10346000804F1DD01C4B98421AD01C4B984217D04D
:103470001B4B984214D01B4B984211D01A4B9842C8
:103480000ED01A4B98420BD0194B984208D0194BCA
:10349000984205D0184B984202D0184B984203D15D
:1034A00022F44072CB681A4322F080034C6943EA4D
:1034B000040202608B68C3620B688362054B98420A
:1034C00002D0084B984201D10B6903630123436189
:1034D00010BD000000000140000400400008004052
:1034E000000C004000040140004001400044014045
:1034F0000048014000180040001C0040002000402F
:1035000070B50546AC6B0020E085E0842046FEF7F0
:103510006FFC70BD00BF00BF02680C3252E8002F84
:1035200022F4907102680C3242E80013002BF3D1B0
:1035300000BF00BF00BF0268143252E8002F22F023
:1035400001010268143242E80013002BF3D100BFDE
:10355000016B01290ED100BF00BF02680C3252E896
:10356000002F22F0100102680C3242E80013002BF9
:10357000F3D100BF202180F83E1000210163704785
:1035800010B504462068C06820F040002168C8607B
:10359000202084F83D002046FEF7DAFE002010BD12
:1035A000F8B5044694F83E00222873D1A068B0F51F
:1035B000805F0CD1206950B90025A66A2068406858
:1035C000C0F308003080A06A801CA06215E0A56AE4
:1035D0000026A068B0F5805F03D0A06828B92069F4
:1035E00018B920684068287004E02068406800F03E
:1035F0007F002870A06A401CA062E08D401E80B24F
:10360000E085002844D12068C06820F020002168AF
:10361000C8602068C06820F480702168C860206895
:10362000406920F0010021684861202084F83E00B4
:10363000206B012826D10020206300BF00BF216835
:103640000C3151E8001F21F0100021680C3141E8D5
:103650000002002AF3D100BF2068006800F01000CB
:1036600010280AD100BF0020009020680068009058
:1036700020684068009000BF00BFA18D2046FEF783
:1036800054FB02E02046FEF725FE0020F8BD01E0D5
:103690000020FBE70220F9E72DE9F84F04462068F7
:1036A000006920F44050E1680843216808612169FD
:1036B000A068084361690843E169084300902068F5
:1036C000C06849F20C618843009908432168C860CA
:1036D0002068406920F44070A1690843216848616E
:1036E00076492068884203D075492068884203D112
:1036F000FDF7B0FB814602E0FDF79CFB8146E069E7
:10370000B0F5004F6CD102206168A0FB0150034668
:103710001920A9FB007001462A463846FCF714FE22
:103720006421B0FBF1F04FEA001A02206168A0FBAF
:1037300001510B461920A9FB00712A463846FCF7B7
:1037400003FE834602206168A0FB01500346192056
:10375000A9FB00712A463846FCF7F6FD6421B0FB50
:10376000F1F000EBC00101EB0010ABEB8000322167
:1037700001EBC0006421B0FBF1F000F0F8000AEBAF
:10378000400A02206168A0FB015003461920A9FBF2
:10379000007001462A463846FCF7D6FD83460220D3
:1037A0006168A0FB015003461920A9FB00712A465D
:1037B0003846FCF7C9FD6421B0FBF1F000EBC00115
:1037C00001EB0010ABEB8000322101EBC000642163
:1037D000B0FBF1F000F007005044216888606AE017
:1037E00004206168A0FB015003461920A9FB00706A
:1037F00001462A463846FCF7A7FD82460420616848
:10380000A0FB015003461920A9FB007001462A467F
:103810003846FCF799FD6421B0FBF1F000EBC001E4
:1038200001EB0010AAEB8000322101EB00106421B3
:10383000B0FBF1F000F0F00A04206168A0FB017019
:1038400003461920A9FB00513A462846FCF77CFDA7
:103850006421B0FBF1F00AEB001A04206168A0FBC0
:1038600001510B461920A9FB00712A463846FCF786
:103870006BFD834604206168A0FB015003461920BC
:10388000A9FB007001462A463846FCF75DFD64211D
:10389000B0FBF1F000EBC00101EB0010ABEB8000DE
:1038A000322101EB00106421B0FBF1F000F00F00B9
:1038B000504421688860BDE8F88F00000010014086
:1038C0000014014010B5034699629A85DA850020FC
:1038D0001864222083F83E0000BF002083F83C00DB
:1038E00000BF186928B11868C06840F480701C686F
:1038F000E0601868406940F001001C686061186869
:10390000C06840F020001C68E060002010BD014647
:1039100091F83D00212828D18868B0F5805F0BD14F
:10392000086948B90A6A1088C0F308000B68586033
:10393000086A801C086205E00B6A581C0862187847
:103940000B685860C88C401E80B2C88458B908689B
:10395000C06820F080000B68D8600868C06840F03C
:1039600040000B68D860002070470220FCE7000090
:1039700010B50248FEF752FA10BD000028050020DD
:1039800010B50248FEF74AFA10BD00006C05002091
:1039900000BFFEE702480068C0F302207047000045
:1039A0000CED00E010B5002804DB0A07130E054AF1
:1039B000135406E00A07140E034A00F00F031B1FFE
:1039C000D45410BD00E400E018ED00E0EFF30580F2
:1039D0007047FDF755F8FFF7BBFCFEF7EFFCFEF76D
:1039E000A5FDFEF7C3FDFEF7DDFD00F015F8FEF7BF
:1039F000CDFC00F027F800BFFEE770B50546FFF7E5
:103A0000E5FF10B16FF0050404E0002415B128466D
:103A100000F0FAFF204670BD10B5FFF7D7FF10B1D8
:103A20006FF0050409E00648006820B90120044948
:103A30000860002401E04FF0FF34204610BD000074
:103A40007000002070B5FFF7C1FF10B16FF00504E2
:103A50001FE011480068012819D100BF801F002114
:103A6000002804DB0A07130E0C4A135406E00A0769
:103A7000150E0B4A00F00F031B1FD55400BF00BFEB
:103A800002200549086001F03BF8002401E04FF0F6
:103A9000FF34204670BD00007000002000E400E00C
:103AA00018ED00E02DE9FF478046894614460020C6
:103AB0000390FFF78BFF00284ED1B8F1000F4BD0D9
:103AC000802618258246471E44B3206808B1D4F8E2
:103AD00000A0A06900B1A5692DB1382D03D82079C7
:103AE00000F0010018B1002004B0BDE8F087606963
:103AF00008B160698608A06840B1E0685C2805D319
:103B0000206918B1606908B1012708E0A06830B9E0
:103B1000E06820B9206910B9002700E00027012FD4
:103B20000CD12169A0684B463246CDE90051029084
:103B30005146404601F098FC03900DE067B903A898
:103B4000B2B24B465146CDE90050404601F05AFC16
:103B5000012801D0002003900398C5E72DE9F0412A
:103B600005460E461648076816480068001D00F016
:103B7000C3FD681C38B936B112480168091D1248E6
:103B800000F010FE1AE07C190E4800684460BC4248
:103B900007D20C480168091D0C48006800F0E8FDD8
:103BA0000CE008480168091D0948006800F0E0FDC4
:103BB00008480068844201D206480460BDE8F081EC
:103BC0003400002020000020E80A00202800002007
:103BD000240000205000002010B5044600F0EEFD47
:103BE00024480068401C234908602348006840B905
:103BF000214804600846006801280DD100F0FCF956
:103C00000AE01E48006838B91B480068C06AE16ACB
:103C1000884201D81848046019480068401C1849B7
:103C200008600846006860641649E06A09688842CE
:103C300002D91449E06A0860E16A01EB8101124A85
:103C400002EB8100211D00F0ADFD00F0E1FD0B480D
:103C5000006868B108480068C06AE16A884207D213
:103C60004FF0805009490860BFF34F8FBFF36F8F4B
:103C700010BD000030000020200000203C0000208B
:103C80004C000020380000203806002004ED00E041
:103C900008B500F093FD12480068E8B9114800F03B
:103CA00057FD114800F054FD0E48104908600E48B9
:103CB0000F49086000200F4B0F4A102100900A2086
:103CC00001F098F8064908600846006820B10BA189
:103CD0000348006800F05CFE00F09AFD08BD00009B
:103CE00064000020FC0A0020100B00205C00002073
:103CF00060000020240B0020740B0020546D7251D2
:103D00000000000010B516E000F058FD0C48C06837
:103D1000C468201D00F0F0FC0A480068401E0949F4
:103D2000086009480068401E0749086000F070FDFF
:103D3000204600F05FF8044800680028E4D110BD78
:103D4000D40A0020300000202C00002070B504466A
:103D50000D46206C70B1216CE0680144E160D4E94B
:103D60000210884201D32168E1602846226CE16894
:103D7000FCF761FB70BD2DE9F04104460F46154686
:103D80004FF00008A66B206C48B9206800282CD1A1
:103D9000A06801F07FFC80460020A06025E07DB98E
:103DA0003946226C6068FCF746FB216C6068084469
:103DB0006060D4E90101884217D32068606014E094
:103DC0003946226CE068FCF736FB216CE068411A4A
:103DD000E1602168E068884203D2216CA068411A42
:103DE000E160022D01D106B1761E701CA063404631
:103DF000BDE8F08110B5044694F8590030B9206B45
:103E000000F024FD204600F021FD1AE094F859004E
:103E1000012803D1204600F019FD12E094F8590062
:103E2000022801D1012000E0002050B900BF50203D
:103E300080F31188BFF34F8FBFF36F8F00BF00BFB8
:103E4000FEE710BD0146084A126812680AB901224D
:103E500000E000220A600A6822B9034A1268D268A8
:103E6000106800E0002070475C00002030B54FF47F
:103E70007053174800F007042CB1C01D20F0070054
:103E8000134C041B1B1B0246124C22600024114DD4
:103E90006C60D018083820F007000F4C2060002418
:103EA0000D4D2D686C600C4D2D682C601146441A28
:103EB0004C60094C24680C60084D4C682C60084D1F
:103EC0004C682C604FF00044064D2C6030BD000063
:103ED000CC120020740000207C0000208400002010
:103EE000800000209000002000BFFFF70BFF064875
:103EF00000680128F9D94FF0805004490860BFF3E9
:103F00004F8FBFF36F8FF0E73806002004ED00E01D
:103F10002DE9F04106460D4617469846069C0DB918
:103F2000246000E02760E66325640121204600F05C
:103F3000D1FF84F84C80BDE8F0812DE9F05F824626
:103F40000E4690469B460A9F0C9C4FEA8801A5228C
:103F5000206BFCF7B5FAA8F10100216B01EB800999
:103F600029F0070909F0070008B9012000E0002046
:103F700050B900BF502080F31188BFF34F8FBFF3BB
:103F80006F8F00BF00BFFEE786B1002507E0715DBF
:103F900004F134004155705D00B902E06D1C102D34
:103FA000F5D300BF00214320015502E0002084F832
:103FB0003400382F00D33727E762E76400202065FC
:103FC000201D00F0D2FB04F1180000F0CEFB2461AC
:103FD000C7F13800A06164620020606584F8580071
:103FE0005A465146484600F071FB20600B9808B1D4
:103FF0000B980460BDE8F09F10B5002407E004EBC7
:1040000084010F4A02EB810000F0A2FB641C382CF3
:10401000F5D30C4800F09CFB0B4800F099FB0B48D3
:1040200000F096FB0A4800F093FB0A4800F090FB72
:1040300004480949086004480849086010BD0000A8
:1040400038060020980A0020AC0A0020C00A002090
:10405000D40A0020E80A00202400002028000020C4
:1040600010B50146164800E0006803688B42FBD398
:104070000246436813448B4204D143684C6823448E
:10408000436001460A464B6813440468A34211D1B9
:104090000C4C03682468A34208D04B680468646829
:1040A00023444B6003681B680B6005E0054B1B68ED
:1040B0000B6001E003680B60884200D0016010BD16
:1040C000740000207C0000202DE9F04104460D46DC
:1040D00016461F464FF0000865602461B5420CD8B3
:1040E000F01BA169884202D34FF0010811E0211DA5
:1040F0000948006800F03CFB0BE0BE4204D2BD4220
:1041000002D34FF0010804E0211D0448006800F0CC
:104110002FFB4046BDE8F081600000205C000020DD
:1041200070B5054600F04AFBA86B08B9012400E011
:10413000002400F06DFB204670BD70B5054600F010
:104140003DFBA86BE96B884201D1012400E000240B
:1041500000F05EFB204670BDF8B505460F461A48D4
:104160000068C068C468201D00F0C6FA94F82800F2
:1041700000F00400E8B1A06941192B463A462046F8
:10418000FFF7A2FFD8B1002003462A46014600905F
:10419000204601F0DBFB064656B900BF502080F3F5
:1041A0001188BFF34F8FBFF36F8F00BF00BFFEE7D3
:1041B00005E094F8280020F0010084F8280020464B
:1041C000216A8847F8BD00005C000020F0B587B088
:1041D000A0E00398002811DA04AE56B900BF5020C1
:1041E00080F31188BFF34F8FBFF36F8F00BF00BF05
:1041F000FEE7D6E90020B168904700BF0398002889
:10420000E6DB059C606908B9012000E0002010B9D8
:10421000201D00F071FA02A800F0DEF805460398B0
:104220000A2875D2DFE800F009050739416306085E
:104230003A4200BF00BF00BF00BF94F8280040F022
:10424000010084F828000498A269811803462A46D0
:104250002046FFF739FFF8B12046216A884794F8D5
:10426000280000F00400B8B1002000900498A16973
:10427000421800231946204601F068FB074657B94B
:1042800000BF502080F31188BFF34F8FBFF36F8FB3
:1042900000BF00BFFEE700BF3BE000BF94F828006E
:1042A00020F0010084F8280033E000BF94F82800D3
:1042B00040F0010084F828000498A061A06908B1CA
:1042C000012000E0002050B900BF502080F3118889
:1042D000BFF34F8FBFF36F8F00BF00BFFEE7A06932
:1042E00041192B462A462046FFF7EEFE11E094F8CE
:1042F000280000F0020018B9204600F0A7FA05E0F7
:1043000094F8280020F0010084F8280001E0FFE77D
:1043100000BF00BF002203A90448006800F078FF36
:1043200000287FF456AF07B0F0BD00006400002005
:10433000F8B505460C4600F03FFC684600F04CF826
:104340000646009820BB44B9B54206D801F040FAB1
:1043500031462846FFF700FF1CE03CB10E480068DC
:10436000006808B9012000E000200446A91B22468D
:104370000A48006800F022FB01F02AFA50B94FF019
:10438000805007490860BFF34F8FBFF36F8F01E084
:1043900001F01EFAF8BD000060000020640000205B
:1043A00004ED00E00A490968096809B9012100E043
:1043B000002121B14FF0FF31064A116006E00449A7
:1043C0000968C968C868034A4168116070470000FD
:1043D000240000205000002070B5044601F0B2F81F
:1043E000054607480068854204D200F00BF801201A
:1043F000206001E00020206001480560284670BD73
:104400006C0000202DE9F84334E025480068C068BE
:10441000056823480068C068C468201D00F06CF976
:104420002046216A884794F8280000F0040008B369
:10443000A0694619AE4207D966602461211D18485B
:10444000006800F095F915E0002003462A46014671
:104450000090204601F07AFA074657B900BF502075
:1044600080F31188BFF34F8FBFF36F8F00BF00BF82
:10447000FEE700BF0A480068006808B9012000E0B4
:1044800000200028C1D00648D0F800800548006808
:10449000034908600348C0F80080BDE8F8830000C5
:1044A0005C000020600000200E480068401C08B935
:1044B000012000E0002050B900BF502080F3118897
:1044C000BFF34F8FBFF36F8F00BF00BFFEE700BF8A
:1044D000502080F31188BFF34F8FBFF36F8F00BF61
:1044E00000BFFEE79400002008B500BF6846FFF754
:1044F000A9FC044620460099FFF71AFFFFF766FE65
:10450000F4E770B5044600F059F994F9455010E00D
:10451000606A08B9012000E0002038B904F12400E5
:1045200001F00AF918B100F0A9FA00E003E0681EF2
:1045300045B2002DECDC00BFFF2084F8450000F000
:1045400067F900F03BF994F9445010E0206908B98C
:10455000012000E0002048B904F1100001F0ECF85F
:1045600008B100F08BFA681E45B200E001E0002DB2
:10457000ECDC00BFFF2084F8440000F049F970BD76
:104580002DE9F04104464FF0000800F015FB4948C2
:10459000006808B9FFF76AFC474800682040002817
:1045A00070D1D4B1083404F00700B0B104F00700B2
:1045B000C0F10800044404F0070008B9012000E03D
:1045C000002050B900BF502080F31188BFF34F8FF7
:1045D000BFF36F8F00BF00BFFEE7002C52D03748FB
:1045E000006884424ED8364E3046056801E02E46BB
:1045F0002D686868A04202D228680028F7D12D48AB
:10460000006885423ED0306800F1080828683060B4
:104610006868001B102819D92F1907F0070008B97E
:10462000012000E0002050B900BF502080F3118825
:10463000BFF34F8FBFF36F8F00BF00BFFEE7686807
:10464000001B78606C603846FFF70AFD1B496868FC
:104650000968081A19490860084600681949096874
:10466000884203D2154800681649086012496868F4
:104670000968084368600020286013480068401CEF
:104680001149086001F0A4F808F0070008B90120FA
:1046900000E0002050B900BF502080F31188BFF324
:1046A0004F8FBFF36F8F00BF00BFFEE74046BDE8EE
:1046B000F08100007C00002090000020800000209D
:1046C000740000208400002088000020001F4FF0AC
:1046D00080730360001F21F001030360001F054B7E
:1046E000036014380260001F6FF00203036020387B
:1046F00070470000A944000801460A69D1E9013069
:104700009860D1E9010358605068884201D18868F7
:104710005060002008611068401E106010687047EB
:10472000034B0360034B0B60802313607047000052
:10473000140C0020700C0020034B0360034B0B6033
:104740004FF4807313607047700E0020CC0E002071
:1047500000F1080141604FF0FF31816000F1080174
:10476000C160016100210160704700210161704753
:1047700010B502460B685C1C0CB9106907E002F129
:10478000080000E04068446824689C42FAD9446804
:104790004C604C68A160886041600A611468641CC8
:1047A000146010BD42684A6093688B6093685960DA
:1047B0009160086103685B1C0360704700BF502074
:1047C00080F31188BFF34F8FBFF36F8F00BF0E4888
:1047D0000068401C0C49086008460068012812D196
:1047E0000A480068C0B208B9012000E0002050B9B2
:1047F00000BF502080F31188BFF34F8FBFF36F8F3E
:1048000000BF00BFFEE770479400002004ED00E009
:104810000D48006850B900BF502080F31188BFF3E5
:104820004F8FBFF36F8F00BF00BFFEE706480068E1
:10483000401E054908600846006820B9002080F342
:10484000118800BF00BF70479400002070B5064675
:104850003546002E44D0083D2C4622496068096840
:10486000084008B1012000E0002050B900BF5020EE
:1048700080F31188BFF34F8FBFF36F8F00BF00BF6E
:10488000FEE7206808B9012000E0002050B900BF11
:10489000502080F31188BFF34F8FBFF36F8F00BF9D
:1048A00000BFFEE70F49606809680840C0B1206892
:1048B000B0B90C49606809688843606000F07CF911
:1048C0000949606809680844074908602046FFF7FD
:1048D000C7FB06480068401C0449086000F078FFE8
:1048E00070BD000090000020800000208C0000209F
:1048F00000204FF0E02108618861064800684FF40D
:104900007A71B0FBF1F0401E4FF0E02148610720C2
:10491000086170471C00002070B5FBF7F1FC0446ED
:10492000102C16D304F1E02090F8F05315480078CD
:10493000854201DB012000E0002050B900BF50207B
:1049400080F31188BFF34F8FBFF36F8F00BF00BF9D
:10495000FEE70D48006800F4E0600C4909688842F1
:1049600001D8012000E0002050B900BF502080F3A2
:104970001188BFF34F8FBFF36F8F00BF00BFFEE7FB
:1049800070BD0000980000200CED00E09C000020AD
:10499000024600200BE0084B53F8303033B9064B89
:1049A00043F8301003EBC0035A6002E0401C0828B3
:1049B000F1D300BF70470000F80500202DE9F04159
:1049C00005460E4617462C46FFF7F8FE94F94400BC
:1049D000401C10B9002084F8440094F94500401CA4
:1049E00010B9002084F84500FFF712FFA06B28B92A
:1049F0003A46314604F1240000F062F82046FFF701
:104A000080FDBDE8F081000070B504460025D4B1FA
:104A10001248006808B9012000E0002050B900BF2A
:104A2000502080F31188BFF34F8FBFF36F8F00BF0B
:104A300000BFFEE700F0C0F800212046FFF78EF827
:104A400000F0C6FE05463DB94FF0805004490860AD
:104A5000BFF34F8FBFF36F8F70BD00005800002071
:104A600004ED00E0034909680160034909684160F9
:104A70007047000048000020340000200120014958
:104A8000086070474400002070B504460D4654B9D4
:104A900000BF502080F31188BFF34F8FBFF36F8F9B
:104AA00000BF00BFFEE70548016818312046FFF748
:104AB0005FFE01212846FFF751F870BD200000205D
:104AC00070B505460E46144655B900BF502080F318
:104AD0001188BFF34F8FBFF36F8F00BF00BFFEE79A
:104AE0000648016818312846FFF75CFE0CB14FF00C
:104AF000FF3621463046FFF731F870BD2000002018
:104B000010B586B000200590049003AA04A905A85A
:104B1000FFF706FE0022DDE904101346CDE900216F
:104B200002901EA11F48039A00F09EFC1E490860D7
:104B30000846006808B1012400E00024012C02D1DD
:104B400000F0C8FE0446012C15D100BF502080F3B0
:104B50001188BFF34F8FBFF36F8F00BF4FF0FF304F
:104B600012490860012012490860002011490860BC
:104B700000F072F810E0601C08B1012000E0002095
:104B800050B900BF502080F31188BFF34F8FBFF39F
:104B90006F8F00BF00BFFEE706B010BD49444C4513
:104BA00000000000E93E00085400002050000020F2
:104BB0003C0000203400002002480068401C0149ED
:104BC00008607047580000201E48006818B1012096
:104BD0001D49086034E000201B4908601B4801683B
:104BE0000CE051B900BF502080F31188BFF34F8F04
:104BF000BFF36F8F00BF00BFFEE7491E01EB8100CE
:104C0000134A52F8200008B9012000E000200028D3
:104C1000E7D101EB81020E4B03EB82004268526840
:104C2000426000F108024368934202D14268526830
:104C300042604268D268074B1A600448016000BFB6
:104C40007047000058000020440000203800002079
:104C500038060020200000201CB552480068524948
:104C6000884201D0012000E0002050B900BF502050
:104C700080F31188BFF34F8FBFF36F8F00BF00BF6A
:104C8000FEE7484800684849491E884201D0012093
:104C900000E0002050B900BF502080F31188BFF31E
:104CA0004F8FBFF36F8F00BF00BFFEE73F4908463D
:104CB00000780190FF200A461070084600780090A6
:104CC0009DF8000000F0F0009DF80020904201D116
:104CD000012000E0002050B900BF502080F311886F
:104CE000BFF34F8FBFF36F8F00BF00BFFEE79DF88C
:104CF000000000F050002E4A107007202D4A10606E
:104D000009E02C480068401E2A4A10609DF8000007
:104D10004006000E00909DF8000000F08000802802
:104D2000EFD024480068C0F10700042801D1012019
:104D300000E0002050B900BF502080F31188BFF37D
:104D40004F8FBFF36F8F00BF00BFFEE719480068A9
:104D50000002184A10601046008800F4E0601060FD
:104D6000124A019810700F482030006840F470001B
:104D70000C49203108600846006840F07040086027
:104D8000FFF7B6FD00200C490860FBF781FA0B48DD
:104D9000006840F0404009490860FBF765FA0020D0
:104DA0001CBD000000ED00E071C20F4100E400E016
:104DB000980000209C0000209400002034EF00E0C8
:104DC00010B500BF502080F31188BFF34F8FBFF3A1
:104DD0006F8F00BF00F0BCFB18B14FF0805004494A
:104DE000086000BF002080F3118800BF10BD0000E4
:104DF00004ED00E02DE9F84380460E4617461D46B7
:104E0000DDF82090B8F1000F01D0012000E0002073
:104E100050B900BF502080F31188BFF34F8FBFF30C
:104E20006F8F00BF00BFFEE70DB1012000E0002042
:104E300050B900BF502080F31188BFF34F8FBFF3EC
:104E40006F8F00BF00BFFEE707B10EB1012000E089
:104E5000002050B900BF502080F31188BFF34F8F5E
:104E6000BFF36F8F00BF00BFFEE707B90EB9012087
:104E700000E0002050B900BF502080F31188BFF33C
:104E80004F8FBFF36F8F00BF00BFFEE75020009031
:104E90000098502801D1012000E0002050B900BF47
:104EA000502080F31188BFF34F8FBFF36F8F00BF87
:104EB00000BFFEE700BF2C464CB1012084F846003D
:104EC0004B463A46314640460094FFF721F82046CB
:104ED000BDE8F88370B505460E462C4654B900BFB0
:104EE000502080F31188BFF34F8FBFF36F8F00BF47
:104EF00000BFFEE7FFF762FCD4E90F12206801FB58
:104F00000200A0600020A06320686060E06B401E8B
:104F1000226C216800FB0211E160FF2084F844004C
:104F200084F845009EB9206908B9012000E00020FE
:104F3000A8B904F1100000F0FFFB80B14FF08050E1
:104F400009490860BFF34F8FBFF36F8F07E004F18B
:104F50001000FFF7FDFB04F12400FFF7F9FBFFF75A
:104F600057FC012070BD000004ED00E02DE9FF4377
:104F700083B0064688461D464FF00009344654B9B2
:104F800000BF502080F31188BFF34F8FBFF36F8FA6
:104F900000BF00BFFEE7B8F1000F01D1206C08B9D7
:104FA000012000E0002050B900BF502080F311889C
:104FB000BFF34F8FBFF36F8F00BF00BFFEE7022D1F
:104FC00002D1E06B012801D1012000E0002050B99E
:104FD00000BF502080F31188BFF34F8FBFF36F8F56
:104FE00000BF00BFFEE700F09DFA08B9059808B9B8
:104FF000012000E0002050B900BF502080F311884C
:10500000BFF34F8FBFF36F8F00BF00BFFEE700BF3E
:10501000FFF7D4FBA06BE16B884201D3022D28D1AE
:105020002A4641462046FEF7A6FE0746606A08B9B2
:10503000012000E0002068B904F1240000F07CFBAE
:1050400088B14FF0805032490860BFF34F8FBFF3F3
:105050006F8F08E03FB14FF080502D490860BFF3DB
:105060004F8FBFF36F8FFFF7D3FB012007B0BDE871
:10507000F083059818B9FFF7CBFB0020F6E7B9F1EC
:10508000000F04D101A8FFF7EDFC4FF00109FFF775
:10509000BFFBFFF791FDFFF791FB94F94400401C23
:1050A00010B9002084F8440094F94500401C10B960
:1050B000002084F84500FFF7ABFB05A901A800F02C
:1050C0005BF9F0B92046FFF738F8A0B104F1100001
:1050D0000599FFF7D9FC2046FFF713FA00F078FB9B
:1050E000002895D14FF0805009490860BFF34F8FD9
:1050F000BFF36F8F8CE72046FFF703FA00F068FBE1
:1051000086E72046FFF7FDF900F062FB0020ADE7DF
:1051100004ED00E02DE9F84F07468A4690461E460A
:105120003C4654B900BF502080F31188BFF34F8F25
:10513000BFF36F8F00BF00BFFEE7BAF1000F01D1D0
:10514000206C08B9012000E0002050B900BF5020B9
:1051500080F31188BFF34F8FBFF36F8F00BF00BF85
:10516000FEE7022E02D1E06B012801D1012000E010
:10517000002050B900BF502080F31188BFF34F8F3B
:10518000BFF36F8F00BF00BFFEE7FFF7C5FB00BF97
:105190005021EFF3118081F31188BFF34F8FBFF3DC
:1051A0006F8F00BF0546A06BE16B884201D3022ED2
:1051B00025D194F945B0A06B009032465146204667
:1051C000FEF7D9FD0BF1010088B9606A08B901202A
:1051D00000E0002050B904F1240000F0ADFA28B13D
:1051E000B8F1000F02D00120C8F8000004E00BF174
:1051F000010040B284F845004FF0010901E04FF092
:10520000000900BF85F3118800BF4846BDE8F88F4C
:105210002DE9F74183B005460E464FF000082C46B5
:1052200054B900BF502080F31188BFF34F8FBFF3F4
:105230006F8F00BF00BFFEE70EB9206C08B90120D8
:1052400000E0002050B900BF502080F31188BFF368
:105250004F8FBFF36F8F00BF00BFFEE700F062F912
:1052600008B9059808B9012000E0002050B900BF36
:10527000502080F31188BFF34F8FBFF36F8F00BFB3
:1052800000BFFEE700BFFFF799FAA76BF7B1314601
:105290002046FEF75BFD781EA063206908B9012057
:1052A00000E0002060B904F1100000F045FA38B1C8
:1052B0004FF080502F490860BFF34F8FBFF36F8FBF
:1052C000FFF7A6FA012006B0BDE8F081059818B9ED
:1052D000FFF79EFA0020F6E7B8F1000F04D101A80D
:1052E000FFF7C0FB4FF00108FFF792FAFFF764FCED
:1052F000FFF764FA94F94400401C10B9002084F8C8
:10530000440094F94500401C10B9002084F8450081
:10531000FFF77EFA05A901A800F02EF8F0B92046A3
:10532000FEF7FEFEA0B104F124000599FFF7ACFBE7
:105330002046FFF7E6F800F04BFA0028A3D14FF023
:1053400080500C490860BFF34F8FBFF36F8F9AE70F
:105350002046FFF7D6F800F03BFA94E72046FFF727
:10536000D0F800F035FA2046FEF7DAFE00288AD0A1
:105370000020A8E704ED00E070B505460C4655B9DD
:1053800000BF502080F31188BFF34F8FBFF36F8FA2
:1053900000BF00BFFEE754B900BF502080F3118862
:1053A000BFF34F8FBFF36F8F00BF00BFFEE7FFF764
:1053B00005FA124802686868131A2068401C08B988
:1053C000002617E00E4928680968884204D06868FA
:1053D000904201D801260DE02068984207D9206844
:1053E000C01A20602846FFF73DFB002602E000209F
:1053F00020600126FFF70CFA304670BD3400002013
:10540000480000202DE9FF4F85B0804689461746A9
:10541000DDE912ABB800FFF7B3F8064656B15C20E1
:10542000FFF7AEF804460CB1266304E03046FFF700
:105430000DFA00E000248CB1002084F85900CDE979
:1054400000ABCDE902403A4649464046089BFEF78C
:1054500074FD2046FEF7C0FB012501E04FF0FF354B
:10546000284609B0BDE8F08F2DE9F04F85B007461A
:10547000884691469A46DDE90EB6109C0EB1012091
:1054800000E0002050B900BF502080F31188BFF326
:105490004F8FBFF36F8F00BF00BFFEE70CB101203D
:1054A00000E0002050B900BF502080F31188BFF306
:1054B0004F8FBFF36F8F00BF00BFFEE75C200390EC
:1054C00003985C2801D1012000E0002050B900BF02
:1054D000502080F31188BFF34F8FBFF36F8F00BF51
:1054E00000BFFEE700BFB4B1AEB125462C462E6327
:1054F000022085F85900002004A953464A46CDE908
:1055000000B1CDE9025041463846FEF716FD284667
:10551000FEF762FB01E000200490049805B0BDE8AE
:10552000F08F00000549096809B9012005E0044928
:10553000096809B9022000E0002070473C00002003
:10554000580000200149086870470000340000201E
:105550002DE9F0414FF000084348006800287BD156
:1055600042480068451C4148056015BB404800683A
:10557000006808B9012000E0002050B900BF5020A9
:1055800080F31188BFF34F8FBFF36F8F00BF00BF51
:10559000FEE73748076837480068354908603548EE
:1055A000076035480068401C33490860FEF7FAFE82
:1055B00000BF3248006885423BD300BF2C480068DA
:1055C000006808B9012000E0002020B14FF0FF3052
:1055D0002A4908602CE026480068C068C4686668EC
:1055E000B54202D22548066022E0201DFFF784F86C
:1055F000A06A18B104F11800FFF77EF82049E06AAC
:105600000968884202D91E49E06A0860E16A01EB34
:1056100081011C4A02EB8100211DFFF7C3F81A49E2
:10562000E06A0968C96A8842C8D34FF00108C5E733
:1056300000BF15480068C06A00EB8000114951F8AE
:105640002000012801D94FF001081048006808B176
:105650004FF0010805E0FFE70D480068401C0C49C9
:1056600008604046BDE8F08158000020340000206A
:1056700024000020280000204800002050000020C6
:1056800038000020380600202000002044000020C0
:105690004000002070B505462C460026002D43D062
:1056A00022480068844201D1012000E0002050B966
:1056B00000BF502080F31188BFF34F8FBFF36F8F6F
:1056C00000BF00BFFEE7206D50B900BF502080F33F
:1056D0001188BFF34F8FBFF36F8F00BF00BFFEE78E
:1056E000206D401E2065E16CE06A88421CD0206D70
:1056F000D0B9201DFFF700F8E06CE062E06AC0F16D
:105700003800A0610A49E06A0968884202D908495C
:10571000E06A0860E16A01EB8101064A02EB810060
:10572000211DFFF73FF80126304670BD2000002004
:10573000380000203806002070B50646F068C468BE
:1057400054B900BF502080F31188BFF34F8FBFF3CF
:105750006F8F00BF00BFFEE704F11800FEF7CCFF1B
:1057600015480068A0B9201DFEF7C6FF1349E06A7E
:105770000968884202D91149E06A0860E16A01EBD0
:1057800081010F4A02EB8100211DFFF70BF804E0B5
:1057900004F118010B48FFF705F80B49E06A0968A6
:1057A000C96A884204D9012501200849086000E03F
:1057B0000025284670BD0000580000203800002059
:1057C00038060020C00A00202000002044000020ED
:1057D00070B5002400263648006850B900BF50203C
:1057E00080F31188BFF34F8FBFF36F8F00BF00BFEF
:1057F000FEE7FEF7E3FF2E480068401E2C490860D4
:105800000846006800284ED12A48006800284AD07F
:1058100023E02948C068C46804F11800FEF76CFF53
:10582000201DFEF769FF2549E06A0968884202D910
:105830002249E06A0860E16A01EB8101204A02EB3B
:105840008100211DFEF7AEFF1E49E06A0968C96AA2
:10585000884202D301201C4908601748006808B933
:10586000012000E000200028D3D00CB1FEF79AFD03
:105870001648056865B100BFFFF76AFE10B1012048
:10588000114908606D1E002DF6D100200F490860F7
:105890000D48006838B1012630070D490860BFF394
:1058A0004F8FBFF36F8FFEF7B3FF304670BD000020
:1058B0005800002030000020C00A002038000020DE
:1058C0003806002020000020440000204000002076
:1058D00004ED00E010B586B00024FEF7D9F91648B3
:1058E0000068D0B100200590049003AA04A905A87F
:1058F000FEF722FF0222DDE904100023CDE900219A
:1059000002900EA10F48039AFFF7AEFD0E49086002
:105910000846006800B1012400BF54B900BF502000
:1059200080F31188BFF34F8FBFF36F8F00BF00BFAD
:10593000FEE7204606B010BD64000020546D7220C2
:1059400053766300E9440008680000202DE9FF4712
:1059500004460D4616461F46DDF830804FF000091C
:1059600054B900BF502080F31188BFF34F8FBFF3AD
:105970006F8F00BF00BFFEE71448006810B30095AA
:1059800001960294062D15DAFFF7CCFD022808D106
:105990000023424669460D480068FFF7E7FA814652
:1059A00010E000231A46694608480068FFF7DEFA4F
:1059B000814607E000233A46694604480068FFF73D
:1059C000A9FB8146484604B0BDE8F087640000208A
:1059D0004FF04070E1EE100A70470000185A0008BE
:1059E00000000000000000000000000000000000B7
:1059F000001000001800000000000000000000007F
:105A0000000000000000000001020304060708096E
:105A1000000000000102030464656661756C745443
:105A200061736B00445A000800000020A4020000CB
:105A3000C4010008585C0008A40200208C52000039
:105A400000020008011542105201037624F4D5AA81
:105A5000AAAAAA10FF891112239B322446AD5736F9
:105A600065BF74488CC19D5AAFD3BE6CCAE5DB7E5E
:105A7000E9F7F88110080193331A22A5562C47B78D
:105A8000753E64C99C408DDBBF52AEEDDA64CBFF3E
:105A9000F976E802218B30100299132667AF76342D
:105AA00044BD554AADC3BC588ED19F6EEBE7FA7C1E
:105AB000C8F5D983310A2091121803A7772E66B54D
:105AC000543C45CBBD42ACD99E508FEFFB66EAFDFE
:105AD000D874C904428D5316619F702004A91532F1
